:020000040800F2
:10000000FFFF0020E50100082D0200082D02000876
:100010002D0200082D0200082D020008000000003B
:100020000000000000000000000000002D02000899
:100030002D020008000000002D0200082D0200081B
:100040002D0200082D0200082D0200082D020008D4
:100050002D0200082D0200082D0200082D020008C4
:10006000310200082D0200082D0200082D020008B0
:100070002D0200082D0200082D0200082D020008A4
:100080002D0200082D0200082D0200082D02000894
:100090002D0200082D0200082D0200082D02000884
:1000A0002D0200082D0200082D0200082D02000874
:1000B0002D020008C10200082D0200082D020008D0
:1000C0002D0200082D0200082D0200082D02000854
:1000D0002D020008050400082D0200082D0200086A
:1000E0002D0200082D0200082D0200082D02000834
:1000F0002D0200082D0200082D0200082D02000824
:100100002D0200082D0200082D0200082D02000813
:100110002D0200082D0200082D0200082D02000803
:100120002D0200082D0200082D0200082D020008F3
:1001300000000000000000000000000000000000BF
:1001400000000000000000000000000000000000AF
:10015000000000000000000000000000000000009F
:10016000000000000000000000000000000000008F
:10017000000000000000000000000000000000007F
:10018000000000000000000000000000000000006F
:10019000000000000000000000000000000000005F
:1001A000000000000000000000000000000000004F
:1001B000000000000000000000000000000000003F
:1001C000000000000000000000000000000000002F
:1001D000000000000000000000000000000000001F
:0401E0005FF8E0F1F3
:1001E400002103E00B4B5B58435004310A480B4B8E
:1001F40042189A42F6D30A4A02E0002342F8043B2A
:10020400084B9A42F9D300F0F9FA00F021FB00F010
:100214008FF87047A00800080000002004000020A8
:1002240004000020D4000020FEE7000008B50A20E6
:1002340000F0A0F80421074800F0B6F940B9064AD6
:100244001368B3FA83F35B091360042000F058F9D0
:1002540008BD00BF001801409481214230B585B02B
:1002640005460C460121022000F0B6F90023ADF842
:100274000A30ADF80630ADF8085004A921F80C4D49
:100284000D4C204600F0B6F901221146204600F03C
:1002940009FA1D238DF8003003238DF80130012560
:1002A4008DF80350684600F0E9F82946204600F02E
:1002B400EBF905B030BD00BF0004004008B50121D2
:1002C400074800F0FBF948B10121054800F002FAA3
:1002D400044A1368B3FA83F35B09136008BD00BFD3
:1002E400000400409401234210B500F025F800F00A
:1002F4005FF841F61F4141F28730FFF7AFFF00245A
:100304000A4A1368B3FA83F35B0913604FF4FA7073
:1003140000F030F8002305E00234E4B2142C00D1DC
:1003240000240133632BF7DDEAE700BF9481214207
:1003340008B5FFF7D9FF00BF08B56FF0040000F05F
:10034400CFF8084B1B68084AA2FB0323C3F34753A7
:10035400064A1370C3EB431203EB8203DA00044B27
:100364001A8008BD0000002083DE1B430400002027
:10037400060000200C4B1B8800FB03F00B4B58605D
:1003840000229A601A6842F001021A60074B1B6847
:1003940003F00113012BF9D0044B1A6822F0010277
:1003A4001A6000229A6070470600002010E000E006
:1003B40030B583B00121482000F000F92024ADF8C5
:1003C400044010238DF8073003238DF806300B4DBD
:1003D40001A9284600F09AF82146284600F0ECF8D6
:1003E400ADF8044005F5406501A9284600F08EF8F3
:1003F4002146284600F0E0F803B030BD000C01406F
:1004040008B540F225511A4800F06CF900282DD0A7
:10041400174800F063F9C0B2164B1B8813F4004F61
:1004240024D103F4804292B262B10A2803D000229C
:10043400104B1A8008BD6FEA43436FEA53430D4AD9
:10044400138008BD0D2804D143F48043094A138066
:1004540008BDC3F30D020849885401339BB2054A11
:100464001380C72B02D90022024B1A8008BD00BF9B
:1004740000380140D000002008000020C378FBB100
:10048400154BDB68DB43C3F30223C3F104010F22E2
:10049400DA40437803FA01F1837813400B431B01DC
:1004A4000278DBB20D490A4482F800330378580914
:1004B40003F01F03012202FA03F341F820307047CE
:1004C40003785A0903F01F03012101FA03F32032D0
:1004D400024941F82230704700ED00E000E100E0FD
:1004E400042805D1054A136843F0040313607047D8
:1004F400024A136823F004031360704710E000E01D
:10050400014B5861704700BF00040140F0B4CB7840
:1005140003F00F02154613F0100F01D08D78154328
:100524000B78E3B10668002316E001229A400C8898
:1005340032EA04040FD19C000F27A74026EA0706DD
:1005440005FA04F42643CC78282C01D1426102E058
:10055400482C00D102610133072BE6D906600B88D1
:10056400FF2B1ED94668002318E003F1080401227A
:10057400A2400C8832EA04040FD19C000F27A74044
:1005840026EA070605FA04F42643CC78282C00D181
:100594004261CC78482C00D102610133072BE4D9A5
:1005A4004660F0BC704700BF8368194201D0012047
:1005B40070470020704700BF0161704721B1054BAF
:1005C4009A69104398617047024A936923EA0000CC
:1005D400906170470010024021B1054BDA69104365
:1005E400D8617047024AD36923EA0000D06170479A
:1005F4000010024003889BB2214A904212D002F5B7
:10060400006290420ED0B0F1804F0BD0A2F5983228
:10061400904207D002F58062904203D002F58062D6
:10062400904203D123F070034A881343154A904241
:1006340008D002F58062904204D023F440739BB248
:10064400CA88134303808B8883850B8803850C4BEE
:1006540098420FD003F5006398420BD003F5406332
:10066400984207D003F58063984203D003F5806372
:10067400984201D10B7A038601238382704700BF1D
:10068400002C01400010004029B103889BB243F0C4
:1006940001030380704703889BB223F001039BB2DC
:1006A4000380704722B183899BB2194381817047CB
:1006B4008389C94389B2194081817047028A838939
:1006C4000B40114202D01BB9002070470020704734
:1006D40001207047C94389B2018270478088C0F302
:1006E4000800704710B4C1F3421201F01F04012343
:1006F400A340012A03D1828992B2134008E0022A5E
:1007040003D1028A92B2134002E0828A92B2134069
:10071400090A012202FA01F1028892B2114013B1CE
:1007240019B9002002E0002000E0012010BC70474D
:1007340082B00023019300932C4A136843F480335E
:1007440013602A4B1B6803F400330093019B0133AD
:100754000193009B1BB9019BB3F5A06FF1D1234B0F
:100764001B6813F4003F02D00123009301E000232F
:100774000093009B012B36D11D4B1A6842F01002E6
:100784001A601A6822F003021A601A6842F0020220
:100794001A60A3F580535A685A605A685A605A68B6
:1007A40042F480625A605A6822F47C125A605A6891
:1007B40042F4E8125A601A6842F080721A600B4BD5
:1007C4001B6813F0007FFAD0084B5A6822F003022A
:1007D4005A605A6842F002025A60044B5B6803F0A4
:1007E4000C03082BF9D102B0704700BF001002407F
:1007F4000020024008B5FFF79BFF08BD08B5104B69
:100804001A6842F001021A6059680E4A0A405A6096
:100814001A6822F0847222F480321A601A6822F470
:1008240080221A605A6822F4FE025A604FF41F02B2
:100834009A60FFF7DFFF4FF00062034B9A6008BD38
:10084400001002400000FFF800ED00E0704700BF18
:100854000E4B70B51E460E4C0025E41AA410A5429A
:1008640004D056F8253098470135F8E7FFF7EEFF36
:10087400084B094C1E46E41AA4100025A54204D0D6
:1008840056F8253098470135F8E770BDA0080008F0
:0C089400A0080008A0080008A008000848
:0408A00000A24A0464
:04000005080001E509
:00000001FF
